{
  "contractName": "AuraToken",
  "abi": [
    {
      "constant": true,
      "inputs": [],
      "name": "name",
      "outputs": [
        {
          "name": "",
          "type": "string"
        }
      ],
      "payable": false,
      "stateMutability": "view",
      "type": "function"
    },
    {
      "constant": true,
      "inputs": [],
      "name": "decimals",
      "outputs": [
        {
          "name": "",
          "type": "uint8"
        }
      ],
      "payable": false,
      "stateMutability": "view",
      "type": "function"
    },
    {
      "constant": true,
      "inputs": [],
      "name": "version",
      "outputs": [
        {
          "name": "",
          "type": "string"
        }
      ],
      "payable": false,
      "stateMutability": "view",
      "type": "function"
    },
    {
      "constant": true,
      "inputs": [],
      "name": "symbol",
      "outputs": [
        {
          "name": "",
          "type": "string"
        }
      ],
      "payable": false,
      "stateMutability": "view",
      "type": "function"
    },
    {
      "inputs": [],
      "payable": false,
      "stateMutability": "nonpayable",
      "type": "constructor"
    },
    {
      "payable": true,
      "stateMutability": "payable",
      "type": "fallback"
    },
    {
      "anonymous": false,
      "inputs": [
        {
          "indexed": true,
          "name": "_from",
          "type": "address"
        },
        {
          "indexed": true,
          "name": "_to",
          "type": "address"
        },
        {
          "indexed": false,
          "name": "_value",
          "type": "uint256"
        }
      ],
      "name": "Transfer",
      "type": "event"
    },
    {
      "anonymous": false,
      "inputs": [
        {
          "indexed": false,
          "name": "_value",
          "type": "uint256"
        }
      ],
      "name": "TotalSupply",
      "type": "event"
    },
    {
      "anonymous": false,
      "inputs": [
        {
          "indexed": false,
          "name": "_value",
          "type": "uint256"
        }
      ],
      "name": "Rates",
      "type": "event"
    },
    {
      "constant": true,
      "inputs": [],
      "name": "total_supply",
      "outputs": [
        {
          "name": "_supply",
          "type": "uint256"
        }
      ],
      "payable": false,
      "stateMutability": "view",
      "type": "function"
    },
    {
      "constant": true,
      "inputs": [],
      "name": "free_supply",
      "outputs": [
        {
          "name": "_supply",
          "type": "uint256"
        }
      ],
      "payable": false,
      "stateMutability": "view",
      "type": "function"
    },
    {
      "constant": true,
      "inputs": [
        {
          "name": "_owner",
          "type": "address"
        }
      ],
      "name": "balanceOf",
      "outputs": [
        {
          "name": "balance",
          "type": "uint256"
        }
      ],
      "payable": false,
      "stateMutability": "view",
      "type": "function"
    },
    {
      "constant": false,
      "inputs": [
        {
          "name": "_to",
          "type": "address"
        },
        {
          "name": "_value",
          "type": "uint256"
        }
      ],
      "name": "transfer",
      "outputs": [
        {
          "name": "success",
          "type": "bool"
        }
      ],
      "payable": false,
      "stateMutability": "nonpayable",
      "type": "function"
    },
    {
      "constant": false,
      "inputs": [
        {
          "name": "_to",
          "type": "address"
        },
        {
          "name": "_value",
          "type": "uint256"
        }
      ],
      "name": "transferFromNA",
      "outputs": [
        {
          "name": "success",
          "type": "bool"
        }
      ],
      "payable": false,
      "stateMutability": "nonpayable",
      "type": "function"
    },
    {
      "constant": false,
      "inputs": [
        {
          "name": "_rateBuy",
          "type": "uint256"
        }
      ],
      "name": "setRates",
      "outputs": [],
      "payable": false,
      "stateMutability": "nonpayable",
      "type": "function"
    },
    {
      "constant": false,
      "inputs": [
        {
          "name": "_amount",
          "type": "uint256"
        }
      ],
      "name": "printCoins",
      "outputs": [],
      "payable": false,
      "stateMutability": "nonpayable",
      "type": "function"
    },
    {
      "constant": false,
      "inputs": [],
      "name": "buyAura",
      "outputs": [],
      "payable": true,
      "stateMutability": "payable",
      "type": "function"
    },
    {
      "constant": false,
      "inputs": [
        {
          "name": "owner",
          "type": "address"
        },
        {
          "name": "_amount",
          "type": "uint256"
        }
      ],
      "name": "withdraw",
      "outputs": [],
      "payable": false,
      "stateMutability": "nonpayable",
      "type": "function"
    }
  ],
  "bytecode": "0x60806040526040805190810160405280600481526020017f48312e3400000000000000000000000000000000000000000000000000000000815250600990805190602001906200005192919062000292565b503480156200005f57600080fd5b5073eb5887409dbf80de52cbe1dd441801f1f01c568b600460006101000a81548173ffffffffffffffffffffffffffffffffffffffff021916908373ffffffffffffffffffffffffffffffffffffffff16021790555073bd1a0e79e12f9d7109d58d014c2a8fba1aa44935600360006101000a81548173ffffffffffffffffffffffffffffffffffffffff021916908373ffffffffffffffffffffffffffffffffffffffff16021790555073c0ee5076f0d78d87ad992b6ce205d88133ad25c0600560006101000a81548173ffffffffffffffffffffffffffffffffffffffff021916908373ffffffffffffffffffffffffffffffffffffffff160217905550600060018190555060006002819055506040805190810160405280600f81526020017f61746c616e74207265736f75727365000000000000000000000000000000000081525060069080519060200190620001bc92919062000292565b506008600760006101000a81548160ff021916908360ff1602179055506040805190810160405280600481526020017f4155524100000000000000000000000000000000000000000000000000000000815250600890805190602001906200022692919062000292565b506414f46b0400600a819055507f91cf34a58a9ed220d9b072639106d1d07251e1791426d2560ab2d6c4ca19a1836001546040518082815260200191505060405180910390a16000600b819055506000600c819055506000600d819055506000600f8190555062000341565b828054600181600116156101000203166002900490600052602060002090601f016020900481019282601f10620002d557805160ff191683800117855562000306565b8280016001018555821562000306579182015b8281111562000305578251825591602001919060010190620002e8565b5b50905062000315919062000319565b5090565b6200033e91905b808211156200033a57600081600090555060010162000320565b5090565b90565b61107580620003516000396000f3006080604052600436106100c5576000357c0100000000000000000000000000000000000000000000000000000000900463ffffffff16806306fdde03146100cf578063178b8baf1461015f5780632d1babed1461018c578063313ce567146101b95780633940e9ee146101ea57806354fd4d501461021557806364db3a8a146102a557806366fe513a146102af57806370a08231146102da57806395d89b4114610331578063a9059cbb146103c1578063f3fef3a314610426578063fb3296ea14610473575b6100cd6104d8565b005b3480156100db57600080fd5b506100e461057b565b6040518080602001828103825283818151815260200191508051906020019080838360005b83811015610124578082015181840152602081019050610109565b50505050905090810190601f1680156101515780820380516001836020036101000a031916815260200191505b509250505060405180910390f35b34801561016b57600080fd5b5061018a60048036038101908080359060200190929190505050610619565b005b34801561019857600080fd5b506101b760048036038101908080359060200190929190505050610803565b005b3480156101c557600080fd5b506101ce610952565b604051808260ff1660ff16815260200191505060405180910390f35b3480156101f657600080fd5b506101ff610965565b6040518082815260200191505060405180910390f35b34801561022157600080fd5b5061022a61096f565b6040518080602001828103825283818151815260200191508051906020019080838360005b8381101561026a57808201518184015260208101905061024f565b50505050905090810190601f1680156102975780820380516001836020036101000a031916815260200191505b509250505060405180910390f35b6102ad6104d8565b005b3480156102bb57600080fd5b506102c4610a0d565b6040518082815260200191505060405180910390f35b3480156102e657600080fd5b5061031b600480360381019080803573ffffffffffffffffffffffffffffffffffffffff169060200190929190505050610a17565b6040518082815260200191505060405180910390f35b34801561033d57600080fd5b50610346610a5f565b6040518080602001828103825283818151815260200191508051906020019080838360005b8381101561038657808201518184015260208101905061036b565b50505050905090810190601f1680156103b35780820380516001836020036101000a031916815260200191505b509250505060405180910390f35b3480156103cd57600080fd5b5061040c600480360381019080803573ffffffffffffffffffffffffffffffffffffffff16906020019092919080359060200190929190505050610afd565b604051808215151515815260200191505060405180910390f35b34801561043257600080fd5b50610471600480360381019080803573ffffffffffffffffffffffffffffffffffffffff16906020019092919080359060200190929190505050610c65565b005b34801561047f57600080fd5b506104be600480360381019080803573ffffffffffffffffffffffffffffffffffffffff16906020019092919080359060200190929190505050610e85565b604051808215151515815260200191505060405180910390f35b6000341115156104e757600080fd5b6c01e4ad1785a42b23aff0000000341115151561050357600080fd5b600a543481151561051057fe5b046000803373ffffffffffffffffffffffffffffffffffffffff1673ffffffffffffffffffffffffffffffffffffffff16815260200190815260200160002060008282540192505081905550600a543481151561056957fe5b04600260008282540392505081905550565b60068054600181600116156101000203166002900480601f0160208091040260200160405190810160405280929190818152602001828054600181600116156101000203166002900480156106115780601f106105e657610100808354040283529160200191610611565b820191906000526020600020905b8154815290600101906020018083116105f457829003601f168201915b505050505081565b6a013da329b63364718000006001541115151561063557600080fd5b60008111151561064457600080fd5b6714d1120d7b160000811115151561065b57600080fd5b600360009054906101000a900473ffffffffffffffffffffffffffffffffffffffff1673ffffffffffffffffffffffffffffffffffffffff163373ffffffffffffffffffffffffffffffffffffffff1614156106b95780600b819055505b600460009054906101000a900473ffffffffffffffffffffffffffffffffffffffff1673ffffffffffffffffffffffffffffffffffffffff163373ffffffffffffffffffffffffffffffffffffffff1614156107175780600c819055505b600560009054906101000a900473ffffffffffffffffffffffffffffffffffffffff1673ffffffffffffffffffffffffffffffffffffffff163373ffffffffffffffffffffffffffffffffffffffff1614156107755780600d819055505b600c54600b5414801561078b5750600d54600c54145b156108005780600160008282540192505081905550806002600082825401925050819055507f91cf34a58a9ed220d9b072639106d1d07251e1791426d2560ab2d6c4ca19a183816040518082815260200191505060405180910390a16000600b819055506000600c819055506000600d819055505b50565b600360009054906101000a900473ffffffffffffffffffffffffffffffffffffffff1673ffffffffffffffffffffffffffffffffffffffff163373ffffffffffffffffffffffffffffffffffffffff1614806108ac5750600460009054906101000a900473ffffffffffffffffffffffffffffffffffffffff1673ffffffffffffffffffffffffffffffffffffffff163373ffffffffffffffffffffffffffffffffffffffff16145b806109045750600560009054906101000a900473ffffffffffffffffffffffffffffffffffffffff1673ffffffffffffffffffffffffffffffffffffffff163373ffffffffffffffffffffffffffffffffffffffff16145b151561090f57600080fd5b80600a819055507ffba09e264e05d7e303c3bbc792e1df3c944b544b495358b19786f96560015d0a600a546040518082815260200191505060405180910390a150565b600760009054906101000a900460ff1681565b6000600154905090565b60098054600181600116156101000203166002900480601f016020809104026020016040519081016040528092919081815260200182805460018160011615610100020316600290048015610a055780601f106109da57610100808354040283529160200191610a05565b820191906000526020600020905b8154815290600101906020018083116109e857829003601f168201915b505050505081565b6000600254905090565b60008060008373ffffffffffffffffffffffffffffffffffffffff1673ffffffffffffffffffffffffffffffffffffffff168152602001908152602001600020549050919050565b60088054600181600116156101000203166002900480601f016020809104026020016040519081016040528092919081815260200182805460018160011615610100020316600290048015610af55780601f10610aca57610100808354040283529160200191610af5565b820191906000526020600020905b815481529060010190602001808311610ad857829003601f168201915b505050505081565b600080826000803373ffffffffffffffffffffffffffffffffffffffff1673ffffffffffffffffffffffffffffffffffffffff168152602001908152602001600020540310158015610b4f5750600082115b15610c5a57816000803373ffffffffffffffffffffffffffffffffffffffff1673ffffffffffffffffffffffffffffffffffffffff16815260200190815260200160002060008282540392505081905550816000808573ffffffffffffffffffffffffffffffffffffffff1673ffffffffffffffffffffffffffffffffffffffff168152602001908152602001600020600082825401925050819055508273ffffffffffffffffffffffffffffffffffffffff163373ffffffffffffffffffffffffffffffffffffffff167fddf252ad1be2c89b69c2b068fc378daa952ba7f163c4a11628f55a4df523b3ef846040518082815260200191505060405180910390a360019050610c5f565b600090505b92915050565b600081111515610c7457600080fd5b600360009054906101000a900473ffffffffffffffffffffffffffffffffffffffff1673ffffffffffffffffffffffffffffffffffffffff163373ffffffffffffffffffffffffffffffffffffffff161480610d1d5750600460009054906101000a900473ffffffffffffffffffffffffffffffffffffffff1673ffffffffffffffffffffffffffffffffffffffff163373ffffffffffffffffffffffffffffffffffffffff16145b80610d755750600560009054906101000a900473ffffffffffffffffffffffffffffffffffffffff1673ffffffffffffffffffffffffffffffffffffffff163373ffffffffffffffffffffffffffffffffffffffff16145b1515610d8057600080fd5b600e60009054906101000a900473ffffffffffffffffffffffffffffffffffffffff1673ffffffffffffffffffffffffffffffffffffffff168273ffffffffffffffffffffffffffffffffffffffff1614158015610ddf5750600f5481145b15610e38576000600f819055508173ffffffffffffffffffffffffffffffffffffffff166108fc829081150290604051600060405180830381858888f19350505050158015610e32573d6000803e3d6000fd5b50610e81565b81600e60006101000a81548173ffffffffffffffffffffffffffffffffffffffff021916908373ffffffffffffffffffffffffffffffffffffffff16021790555080600f819055505b5050565b6000600360009054906101000a900473ffffffffffffffffffffffffffffffffffffffff1673ffffffffffffffffffffffffffffffffffffffff163373ffffffffffffffffffffffffffffffffffffffff161480610f305750600460009054906101000a900473ffffffffffffffffffffffffffffffffffffffff1673ffffffffffffffffffffffffffffffffffffffff163373ffffffffffffffffffffffffffffffffffffffff16145b80610f885750600560009054906101000a900473ffffffffffffffffffffffffffffffffffffffff1673ffffffffffffffffffffffffffffffffffffffff163373ffffffffffffffffffffffffffffffffffffffff16145b1515610f9357600080fd5b816000808573ffffffffffffffffffffffffffffffffffffffff1673ffffffffffffffffffffffffffffffffffffffff16815260200190815260200160002060008282540192505081905550816002600082825403925050819055508273ffffffffffffffffffffffffffffffffffffffff1660007fddf252ad1be2c89b69c2b068fc378daa952ba7f163c4a11628f55a4df523b3ef846040518082815260200191505060405180910390a360019050929150505600a165627a7a7230582030b4fa21e1536424843afad9adf8aa0e95c89eb46b2df81ecd205e171dab98000029",
  "source": "pragma solidity ^0.4.25;\r\n\r\ncontract AuraToken {\r\n\r\n    mapping (address => uint256) balances;\r\n    uint256 totalSupply;\r\n    uint256 freeSupply;\r\n    address owner1;\r\n    address owner2;\r\n    address owner3;\r\n    string public name;                   //fancy name: eg Simon Bucks\r\n    uint8 public decimals;                //How many decimals to show. ie. There could 1000 base units with 3 decimals. Meaning 0.980 SBX = 980 base units. It's like comparing 1 wei to 1 ether.\r\n    string public symbol;                 //An identifier: eg SBX\r\n    string public version = 'H1.4';       //human 0.1 standard. Just an arbitrary versioning scheme.\r\n\r\n    uint256 rateBuy;\r\n    uint256 amount1;\r\n    uint256 amount2;\r\n    uint256 amount3;\r\n    address w_owner;\r\n    uint256 w_amount;\r\n    ///uint256 rateSell;\r\n\r\n    constructor () public {\r\n        owner2 = 0xEb5887409Dbf80de52cBE1dD441801F1f01c568b;\r\n        owner1 = 0xBd1A0E79e12F9D7109d58D014C2A8fba1AA44935;\r\n        owner3 = 0xc0eE5076F0D78D87AD992B6CE205d88133aD25c0;\r\n\r\n        //balances[msg.sender] = 1000000000000000; // Give the creator all initial tokens (100000 for example)\r\n        totalSupply = 0;                    // Update total supply (100000 for example)\r\n        freeSupply = 0;                     // Update free supply (100000 for example)\r\n        name = \"atlant resourse\";           // Set the name for display purposes\r\n        decimals = 8;                        // Amount of decimals for display purposes\r\n        symbol = \"AURA\";                     // Set the symbol for display purposes\r\n        rateBuy = 90000000000;              // 9 eth per AURA\r\n        ///rateSell = 404000000;\r\n        emit TotalSupply(totalSupply);\r\n        amount1 = 0;\r\n        amount2 = 0;\r\n        amount3 = 0;\r\n        w_amount = 0;\r\n    }\r\n\r\n    /// @return total amount of tokens\r\n    function total_supply() public view returns (uint256 _supply) {\r\n        return totalSupply;\r\n    }\r\n\r\n    /// @return free amount of tokens\r\n    function free_supply() public view returns (uint256 _supply) {\r\n        return freeSupply;\r\n    }\r\n\r\n    /// @param _owner The address from which the balance will be retrieved\r\n    /// @return The balance\r\n    function balanceOf(address _owner) public constant returns (uint256 balance) {\r\n        return balances[_owner];\r\n    }\r\n\r\n\r\n    /// @notice send `_value` token to `_to` from `msg.sender`\r\n    /// @param _to The address of the recipient\r\n    /// @param _value The amount of token to be transferred\r\n    /// @return Whether the transfer was successful or not\r\n    function transfer(address _to, uint256 _value) public returns (bool success) {\r\n        if (balances[msg.sender] - _value >= 0 && _value > 0) {\r\n            balances[msg.sender] -= _value;\r\n            balances[_to] += _value;\r\n            emit Transfer(msg.sender, _to, _value);\r\n            return true;\r\n        } else { return false; }\r\n    }\r\n\r\n    /// @notice send `_value` token to `_to` from New Atlantis Central bank\r\n    /// @param _to The address of the recipient\r\n    /// @param _value The amount of token to be transferred. Negative value is allowed\r\n    /// @return Whether the transfer was successful or not\r\n    function transferFromNA(address _to, uint256 _value) public returns (bool success) {\r\n        require((msg.sender == owner1) || (msg.sender == owner2) || (msg.sender == owner3));\r\n        balances[_to] += _value;\r\n        freeSupply -= _value;\r\n        emit Transfer(0, _to, _value);\r\n        return true;\r\n    }\r\n\r\n\r\n    event Transfer(address indexed _from, address indexed _to, uint256 _value);\r\n    event TotalSupply(uint256 _value);\r\n    event Rates(uint256 _value);\r\n    \r\n    function () public payable {\r\n        buyAura();\r\n    }\r\n\r\n    ///function setRates(uint256 _rateBuy, uint256 _rateSell) public {\r\n    function setRates(uint256 _rateBuy) public {\r\n        require((msg.sender == owner1) || (msg.sender == owner2) || (msg.sender == owner3));\r\n        ///require(_rateBuy < _rateSell);\r\n        rateBuy = _rateBuy;\r\n        ///rateSell = _rateSell;\r\n        emit Rates(rateBuy);\r\n    }\r\n    \r\n    function printCoins(uint256 _amount) public {       // must be signed from all owners\r\n        require(totalSupply<=1500000000000000000000000);  // 15 000 000 000 000 000 AURA\r\n        require(_amount>0);\r\n        require(_amount<=1500000000000000000);          // 15 000 000 000 AURA\r\n        if(msg.sender == owner1) amount1 = _amount;\r\n        if(msg.sender == owner2) amount2 = _amount;\r\n        if(msg.sender == owner3) amount3 = _amount;\r\n        if((amount1 == amount2) && (amount2 == amount3)) {\r\n            totalSupply +=_amount;\r\n            freeSupply += _amount;\r\n            emit TotalSupply(_amount);\r\n            amount1 = 0;\r\n            amount2 = 0;\r\n            amount3 = 0;\r\n        }\r\n    }\r\n    \r\n    function buyAura() public payable {\r\n        require(msg.value > 0);\r\n        require(msg.value <= 150000000000000000000000000000); //150 000 000 000 ether\r\n        balances[msg.sender] += msg.value / rateBuy;\r\n        freeSupply -= msg.value / rateBuy; // Negative value is allowed\r\n    }\r\n    \r\n    ///function sellAura(uint256 _amount) public {\r\n    ///    require(balances[msg.sender] > _amount);\r\n    ///    balances[msg.sender] -= _amount;\r\n    ///    msg.sender.transfer(_amount / rateSell);\r\n    ///}\r\n    \r\n    function withdraw(address owner, uint256 _amount) public {  // must be signed from 2 owners\r\n        require(_amount > 0);\r\n        require((msg.sender == owner1) || (msg.sender == owner2) || (msg.sender == owner3));\r\n        if((owner != w_owner) && (_amount == w_amount)) {\r\n            w_amount = 0;\r\n            owner.transfer(_amount);\r\n        }\r\n        else {\r\n            w_owner = owner;\r\n            w_amount = _amount;\r\n        }\r\n    }\r\n}",
  "sourcePath": "D:/GitHub/Aura/smart contract/contracts/aura.sol",
  "compiler": {
    "name": "solc",
    "version": "0.4.25+commit.59dbf8f1.Emscripten.clang"
  },
  "schemaVersion": "3.0.0-beta.1",
  "updatedAt": "2018-11-19T23:45:32.967Z"
}